:1000000002EF00F0720ED36E480EB86E800EAB6E2B
:10001000260EAC6ECF0EAF6E25EC00F02BEC00F090
:1000200022EC00F0000ED86EB80E546F010E566F21
:1000300035EC00F03EEC00F056A18B9056B18B8071
:10004000F7D7120094908B901200D08EF28EF28C23
:10005000F180F2861200C294C280C190C186C08035
:10006000C084C086C08AC08E1200C2821200C2B292
:10007000FED7C350526FC450536F120037EC00F0DC
:100080005251545DD8B0010ED8A0000E566F525197
:10009000AD6E1200C80E506F00000000502F4CEFE4
:1000A00000F01200640E516F4AEC00F0512F54EF33
:1000B00000F01200050E526F52EC00F0522F5CEF70
:0400C00000F012003A
:020000040030CA
:03000100081F1EB7
:02000500018177
:060008000FC00FE00F40E5
:00000001FF
