:040000000FEF00F00E
:06000800F2B466D0100006
:10001800F0B054D01000720ED36E480EB86E800E39
:10002800AB6E260EAC6ECF0EAF6E3CEC00F034EC2F
:1000380000F045EC00F031EC00F0000ED86EB80E80
:10004800546F010E566F4FEC00F058EC00F056A1BB
:100058008B9056B18B80F7D7120094908B9012003A
:10006800D08EE00EF26EF40EF16E080EF06E1200F5
:10007800040ED56E0B0ED76EDC0ED66E1200D58E22
:100088001200C294C280C190C186C080C084C0865C
:10009800C08AC08E1200C2821200C2B2FED7C350FC
:1000A800526FC450536F120051EC00F05251545D1E
:1000B800D8B0010ED8A0000E566F1200F0908B80B9
:1000C8000F0E516F43EC00F05151FEE18B90100080
:1000D800F2940B0ED76EDC0ED66E514FD59E515151
:0400E800AD6E1000E9
:020000040030CA
:03000100081F1EB7
:02000500018177
:060008000FC00FE00F40E5
:00000001FF
