:1000000002EF00F016EC00F01CEC00F013EC00F036
:10001000850E556F25EC00F02FEC00F056B18B806B
:100020000AEF00F0120094908B901200D08EF28EA6
:10003000F28CF180F2861200C284C280C190C18627
:10004000C080C084C086C08A1200C2821200C1B2C1
:1000500027EF00F0C3CF53F4C4CF54F4120027ECC1
:1000600000F05351555FD8B038EF00F03CEF00F08E
:10007000000E566F3EEF00F0010E566F1200C80ED4
:10008000506F00000000502F41EF00F01200640E8E
:10009000516F3FEC00F0512F49EF00F01200050EB8
:0E00A000526F47EC00F0522F51EF00F01200AB
:020000040030CA
:03000100081F1EB7
:02000500018177
:060008000FC00FE00F40E5
:00000001FF
